:020000040000FA
:0400000013EF00F00A
:060008000982F5EF02F091
:100018000980E0CF06F006C0E0FF09901000F0EF7D
:1000280002F0F7EC02F0CFEC02F0010E056E010EC3
:10003800046E010E036E010E026E010E016E000EBB
:1000480081B0010E0518D8B42CEF00F02EEF00F0A7
:10005800ABEF00F0C28AC288C296C294C282C2B212
:1000680038EF00F03AEF00F033EF00F01F0EC460F5
:1000780040EF00F042EF00F04EEF00F0C4509EA8B1
:1000880048EF00F04AEF00F043EF00F0610EAD6E6C
:100098009FEF00F03D0EC46054EF00F056EF00F003
:1000A80069EF00F01E0EC4645CEF00F05EEF00F034
:1000B80069EF00F09EA863EF00F065EF00F05EEFD7
:1000C80000F0620EAD6E9FEF00F05B0EC4606FEF44
:1000D80000F071EF00F084EF00F03C0EC46477EF9D
:1000E80000F079EF00F084EF00F09EA87EEF00F0BA
:1000F80080EF00F079EF00F0630EAD6E9FEF00F037
:10010800790EC4608AEF00F08CEF00F09FEF00F0EA
:100118005A0EC46492EF00F094EF00F09FEF00F0E5
:100128009EA899EF00F09BEF00F094EF00F0640EAA
:10013800AD6E9FEF00F0050E086E0F0E076EF10E04
:10014800E82EFED7072EFCD7082EFAD700F0000EAF
:1001580081B2010E0418D8B4B4EF00F0B6EF00F085
:1001680033EF01F0C28AC298C286C294C282C2B278
:10017800C0EF00F0C2EF00F0BBEF00F01F0EC4604C
:10018800C8EF00F0CAEF00F0D6EF00F0C4509EA808
:10019800D0EF00F0D2EF00F0CBEF00F0650EAD6EBF
:1001A80027EF01F03D0EC460DCEF00F0DEEF00F059
:1001B800F1EF00F01E0EC464E4EF00F0E6EF00F08B
:1001C800F1EF00F09EA8EBEF00F0EDEF00F0E6EFA6
:1001D80000F0660EAD6E27EF01F05B0EC460F7EF1E
:1001E80000F0F9EF00F00CEF01F03C0EC464FFEFF3
:1001F80000F001EF01F00CEF01F09EA806EF01F00E
:1002080008EF01F001EF01F0670EAD6E27EF01F086
:10021800790EC46012EF01F014EF01F027EF01F03E
:100228005A0EC4641AEF01F01CEF01F027EF01F039
:100238009EA821EF01F023EF01F01CEF01F0680EFA
:10024800AD6E27EF01F0050E086E0F0E076EF10E6A
:10025800E82EFED7072EFCD7082EFAD700F0000E9E
:1002680081B4010E0318D8B43CEF01F03EEF01F061
:10027800BBEF01F0C28AC298C296C294C282C2B2CF
:1002880048EF01F04AEF01F043EF01F01F0EC460A0
:1002980050EF01F052EF01F05EEF01F0C4509EA85C
:1002A80058EF01F05AEF01F053EF01F0690EAD6E0F
:1002B800AFEF01F03D0EC46064EF01F066EF01F0AE
:1002C80079EF01F01E0EC4646CEF01F06EEF01F0DF
:1002D80079EF01F09EA873EF01F075EF01F06EEF72
:1002E80001F06A0EAD6EAFEF01F05B0EC4607FEFF8
:1002F80001F081EF01F094EF01F03C0EC46487EF48
:1003080001F089EF01F094EF01F09EA88EEF01F063
:1003180090EF01F089EF01F06B0EAD6EAFEF01F0D9
:10032800790EC4609AEF01F09CEF01F0AFEF01F095
:100338005A0EC464A2EF01F0A4EF01F0AFEF01F090
:100348009EA8A9EF01F0ABEF01F0A4EF01F06C0E4D
:10035800AD6EAFEF01F0050E086E0F0E076EF10ED1
:10036800E82EFED7072EFCD7082EFAD700F0000E8D
:1003780081B6010E0218D8B4C4EF01F0C6EF01F03F
:1003880043EF02F0C28AC298C296C284C282C2B245
:10039800D0EF01F0D2EF01F0CBEF01F01F0EC460F7
:1003A800D8EF01F0DAEF01F0E6EF01F0C4509EA8B3
:1003B800E0EF01F0E2EF01F0DBEF01F06D0EAD6E62
:1003C80037EF02F03D0EC460ECEF01F0EEEF01F004
:1003D80001EF02F01E0EC464F4EF01F0F6EF01F035
:1003E80001EF02F09EA8FBEF01F0FDEF01F0F6EF40
:1003F80001F06E0EAD6E37EF02F05B0EC46007EFD2
:1004080002F009EF02F01CEF02F03C0EC4640FEF9B
:1004180002F011EF02F01CEF02F09EA816EF02F0B6
:1004280018EF02F011EF02F06F0EAD6E37EF02F029
:10043800790EC46022EF02F024EF02F037EF02F0E9
:100448005A0EC4642AEF02F02CEF02F037EF02F0E4
:100458009EA831EF02F033EF02F02CEF02F0700E9D
:10046800AD6E37EF02F0050E086E0F0E076EF10E37
:10047800E82EFED7072EFCD7082EFAD700F0000E7C
:1004880081B8010E0118D8B44CEF02F04EEF02F01B
:1004980023EF00F0C28AC298C286C284C282C2B266
:1004A80058EF02F05AEF02F053EF02F01F0EC4604B
:1004B80060EF02F062EF02F06EEF02F0C4509EA807
:1004C80068EF02F06AEF02F063EF02F0710EAD6EB2
:1004D800BFEF02F03D0EC46074EF02F076EF02F059
:1004E80089EF02F01E0EC4647CEF02F07EEF02F08A
:1004F80089EF02F09EA883EF02F085EF02F07EEF0D
:1005080002F0720EAD6EBFEF02F05B0EC4608FEFAB
:1005180002F091EF02F0A4EF02F03C0EC46497EFF2
:1005280002F099EF02F0A4EF02F09EA89EEF02F00D
:10053800A0EF02F099EF02F0730EAD6EBFEF02F07C
:10054800790EC460AAEF02F0ACEF02F0BFEF02F040
:100558005A0EC464B2EF02F0B4EF02F0BFEF02F03B
:100568009EA8B9EF02F0BBEF02F0B4EF02F0740EF0
:10057800AD6EBFEF02F0050E086E0F0E076EF10E9E
:10058800E82EFED7072EFCD7082EFAD700F023EF67
:1005980000F013EF00F07F887F847F807F827F8662
:1005A8009368000E946E000E956EC09EC08AC09827
:1005B800C086C094C082C080C19AC198C280D38CC2
:1005C800D38AD398AC98AC84B896000EB06E330E2C
:1005D800AF6EAB8EAC8A120009900992000115EF3C
:0805E80000F00992110012005D
:020000040020DA
:08000000FFFFFFFFFFFFFFFF00
:020000040030CA
:0E000000FF081F1EFF8B81FF0FC00FE00F4097
:00000001FF
